:100000000C9446000C945D000C945D000C945D0013
:100010000C945D000C945D000C945D000C945D00EC
:100020000C945D000C945D000C945D000C945D00DC
:100030000C945D000C945D000C945D000C945D00CC
:100040000C945D000C945D000C945D000C945D00BC
:100050000C945D000C945D000C945D000C945D00AC
:100060000C945D000C945D000C945D000C945D009C
:100070000C945D000C945D000C945D000C945D008C
:100080000C945D000C945D000C945D0011241FBE67
:10009000CFEFD0E4DEBFCDBF11E0A0E0B1E0EEECE9
:1000A000F1E000E00BBF02C007900D92AE30B10747
:1000B000D9F70E9488000C94E5000C940000CF93BF
:1000C000DF9300D01F92CDB7DEB789837B836A832D
:1000D00089818A3031F48A819B81BC018DE00E9444
:1000E0005F0080EC90E0FC018081882F90E08072BE
:1000F00099270097B1F386EC90E02981FC012083D9
:1001000080E090E00F900F900F90DF91CF910895D5
:10011000CF93DF9300D000D01F92CDB7DEB787E238
:1001200090E02FEFFC01208388E290E0FC01108238
:1001300081E290E0FC01108282E290E02FEFFC016E
:10014000208319821A821B821C821D8280E290E029
:10015000FC0180818170898380E290E0FC018081D4
:10016000882F90E082709927959587958A8380E201
:1001700090E0FC018081882F90E08470992795950C
:100180008795959587958B8380E290E0FC0180812F
:10019000882F90E0887099279595879595958795F4
:1001A000959587958C8399818A81980F8B81980F7B
:1001B0008C81890F94E0F92FF81B8F2F8D8388E2B3
:0E01C00090E02D81FC012083C1CFF894FFCF89
:0E01CE0000000002000000005F0000000000C2
:00000001FF
